:020000041000EA
:10000000002008205D0100101301001015010010F0
:100010001101001011010010110100101101001058
:10002000110100101101001011010010F543001022
:10003000110100101101001075430010D140001093
:100040001D0100101D0100101D0100101D010010F8
:100050001D0100101D0100101D0100101D010010E8
:100060001D0100101D0100101D0100101D010010D8
:100070001D0100101D0100101D0100101D010010C8
:100080001D0100101D0100101D0100101D010010B8
:100090001D0100101D0100101D0100101D010010A8
:1000A0001D0100101D0100101D0100101D01001098
:1000B0001D0100101D0100101D0100101D01001088
:1000C0001D0100101D0100101D0100101D01001078
:1000D0001D0100101D0100101D0100101D01001068
:1000E0001D0100101D0100101D0100101D01001058
:1000F0001D0100101D0100101D0100101D01001048
:100100001D0100101D0100101D0100101D01001037
:1001100000BE00BE00BE00BE00BE00BEEFF3058004
:10012000103800BEF2EB8871405A0010605A00107F
:10013000A801001090A31AE7D3DEFFFF42012110AF
:10014000FF010000D8660000793512AB4FF00000C7
:100150002049086006C881F3088810474FF05040D6
:10016000006810B14FF00000F2E70FA40ECC002998
:1001700002D000F015F8F9E71749184A002000E00E
:1001800001C19142FCD1002080F30A8814498847BC
:10019000144988471449884700BEFDE701C901C2D8
:1001A0009A42FBD3704700BF605A00101001002034
:1001B000C00E002010680010000008200000082079
:1001C0001068001000100820001008200000000037
:1001D0007047000008ED00E0C00E00200C14002065
:1001E000E12B001039030010D92B0010F8B500BF27
:1001F000064B0749C91A891048BF0131491003D07D
:10020000044B0BB101481847704700BFC00E0020D7
:10021000C00E00200000000008B5054B1BB10549C9
:100220000548AFF30080BDE80840FFF7E1BF00BF1D
:1002300000000000641200204058001008B506E0DD
:100240000D4802F025FE4FF4FA6003F02BFB0B483B
:1002500004F00AFDFFEE007A07EE100AB4EE677AAA
:10026000F1EE10FAECD005F0B7FA02460B4604485E
:1002700002F08EFEE7E700BF405800102C1300206C
:100280005C58001008B510220F21234804F0D2FC5E
:100290002249234802F050FF0321082000F072F8A1
:1002A0000321092000F06EF800220121082000F04F
:1002B00087F800220121092000F082F802F06AFF8D
:1002C0001F211A2000F05EF800221A20114600F0CB
:1002D00077F800211A2000F087F8124B124A1B68A9
:1002E000272103F4704313600D4804F075FC04F0FB
:1002F0004BFC0021084604F04BFC0C4804F060FC69
:100300000B4804F07FFB0B4802F0C2FDBDE808403B
:10031000002003F041B900BF2C130020801A060012
:100320005009002000000A4000100A4070580010D8
:10033000200900208058001000B583B002F064FD51
:1003400000244FF0030C4FF480722346CDE900C423
:100350000849094803F09EF84FF0020C4FF48072F0
:100360002346CDE900C40549054803F093F803F09E
:1003700071F9FEE794580010850200109C58001097
:100380003D02001010B44FF480740C4B53F8202041
:1003900003EB8003C00082F0400200F1804003F5CF
:1003A000805C02F0C00200F5203003F54053CCF829
:1003B000002041601C605DF8044B704704800340DE
:1003C00010B4084CC90041EA820154F8202004EB23
:1003D0008003514003F5805301F00C015DF8044B9C
:1003E0001960704704800340064B402203EB8003F2
:1003F00019B103F500531A60704703F540531A60B2
:10040000704700BF0480034030B44FF0000343EC5A
:10041000440043EC400005254FF480740B4BC200B0
:1004200053F8201003EB800081F0400102F180437B
:1004300003F5203301F0C00200F5805100F5405073
:100440000A605D60046030BC704700BF04800340F8
:100450000FB400B583B0049C074802F019FD3CB10D
:1004600005A92046019102F087FB044802F010FD27
:10047000012002F099FB00BFB0580010C0580010D6
:1004800070B58646EFF3108572B6124CD4E8CF6F84
:100490000120002EFAD1C4E8460F002EF6D1BFF39A
:1004A0005F8F4FF0010CC80801F007030CFA03F34B
:1004B0001EF800C01CEA030608D14CEA030C0EF833
:1004C00000C0C4E88F6F85F3108870BD1046FFF739
:1004D000BFFF00BF0B120020044A1078431CDBB2A0
:1004E000182B28BF10231370704700BF3409002059
:1004F0004FF0E022936843F000539360704700BFD1
:100500000021044B03F12002C3E88F1F0133934203
:10051000FAD17047001200204FF0E0234FF08032F4
:10052000C3F80024C3F80424C3F80824C3F80C2437
:10053000C3F81024C3F81424C3F81824C3F81C24E7
:10054000C3F82024C3F82424C3F82824C3F82C2497
:10055000C3F83024704700BF012300F01F0293400E
:10056000400941B1800000F1604000F56140C0F8F1
:10057000803103607047024A203042F820307047D3
:1005800000E100E0F8B50D46EFF3108772B6124EA9
:10059000D6E8CF2F0123002AFAD1C6E8423F002A2D
:1005A000F6D1BFF35F8F0D4B00F110049B680C4A2E
:1005B00053F82430934203D0994201D000F002FD59
:1005C000064B9B6843F82450BFF35F8F0023C6E8B7
:1005D0008F3F87F31088F8BD0912002000ED00E07E
:1005E0001D010010014B0B440360704700120020F6
:1005F00070B5104C104DAC420ED2FF26236863B18B
:10060000FFF76AFF01462046FFF7ECFFA680BFF325
:100610005F8F0834AC42F1D370BDFFF75DFF014638
:100620002046FFF7DFFF2671BFF35F8F0834AC422F
:10063000E4D370BDB80E0020C00E00200D4B1A6828
:10064000EFF3108172B6D2E8CFCF0120BCF1000FDA
:10065000F9D1C2E84C0FBCF1000FF4D1BFF35F8FAA
:1006600000221B68C3E88F2F81F3108840BF002051
:1006700000217047341300202DE9F04F2DED028B3F
:1006800085B0EFF30583DBB2103B9A0818BF012257
:100690004FF0010103F0030B18BFAF4DAF4B08BF84
:1006A000AF4D0BEB820253F8226001FA0BF205F515
:1006B00041539FEDA78B01925A602FE0B3881C0431
:1006C00040F19380B379002B40F0DD80B6F908202B
:1006D000002AC0F21E81736902EB420203EBC203DF
:1006E000D3E90247B7F1FF3F08BFB4F1FF3F0ED097
:1006F00005EB8B01AB6A0A69D21AE31A934205D360
:1007000001232A6A03FA0BF3134200D10C61284635
:1007100000F036FBA042B941C0F2FB80B6F90830C8
:10072000019A002B0093EA63C8DBD6F8148003EB30
:100730004309284608EBC907D7E9024A00F020FB25
:10074000A04271EB0A01B9DBBAF1000FC0F2C3801D
:10075000D7E90431834A934200F0ED807A88B6F9F4
:10076000080092B242EA0040984702460B4652EA1D
:10077000030100F0B080002B80F2D180B4EB020EB8
:100780006AEB030A38F93930C7E902EA002B95DB36
:10079000716903EB430201EBC202D2E90270BE456C
:1007A0007AEB000C4FEA430288DBB4462CF8083F92
:1007B00006E003EB430001EBC0005A00D0E90270F1
:1007C000BE451A447AEB000001EBC20404DB31F9A8
:1007D0003230A446002BECDA28F83930009BACF814
:1007E0000030B3881C043FF56DAF3369EFF310821E
:1007F00072B6D3E8CF0F01210028FAD1C3E8401F19
:100800000028F6D1BFF35F8F4FF6FF74B088002346
:10081000316900B2B480C1E88F3F82F310889842FA
:10082000FFF650AF0746A946746906F1080807EBC2
:10083000470E04EBCE03D3E90250B6F90830C446A4
:10084000002B13DBB246009704E034F936309446AF
:10085000002B09DB03EB430604EBC602D2E902716D
:10086000BD4270EB0101F0DA5646009FACF8007013
:1008700034F93E7024F83E30002FD8DAB3794D4673
:10088000002B3FF423AF0023B371B6F9083006F113
:100890000808581C3DD01A46776903E08046591C69
:1008A0003FF416AF03EB430107EBC100B0F802C001
:1008B0001C461CF4004F9E4637F93130EED094426E
:1008C00080ED028B05D0A8F80030328927F831205E
:1008D00034817246E3E738F8393033813369EFF316
:1008E000108272B6D3E8CF0F01210028FAD1C3E8F5
:1008F000401F0028F6D1BFF35F8F7388316928F855
:100900003930009B73800023C1E88F3F82F3108849
:10091000D4E640BF05B0BDEC028BBDE8F08F2846A1
:10092000CDE9022300F02CFA029A039B10EB020E91
:1009300043EB010A26E708460B6902919847002815
:10094000C9D00299D1E9002311E700BFAFF30080BD
:10095000FFFFFFFFFFFFFFFF00800B407C12002026
:1009600000000B40790600102DE9F84F364C256940
:100970002DB1BDE8F84F0A213448FFF733BEDFF848
:10098000E4800321404600F0E9F90326C4F80C8016
:10099000FFF7A2FD4FF0504C2D4B2670034423610E
:1009A000DCF800300F216370636961801D834FF0B4
:1009B0000405A3F878504FF00505A3F890504FF0C8
:1009C0000605A3F8A8504FF007050E214FF6FF7259
:1009D00008274FF00A0EA3F8C0504FF001094FF05E
:1009E0000C0C4FF0020B4FF0090A0D204FF00B05D5
:1009F000A3F868111749A280A3F808E1A160A3F841
:100A000048B0A3F8F0A0A3F82051A3F838C1A3F888
:100A10005001A3F83090A3F86060A3F8D8701A8052
:100A20000D4B3046C8F820700C49DC60FFF7AAFD7A
:100A300049463046FFF790FD094B0A211F640348E1
:100A4000BDE8F84FFFF7CEBD380900203413002071
:100A500000120020FFFF10007C1200207906001019
:100A600000200B4000000B400146F0B50069EFF399
:100A7000108772B6D0E8CF5F0124002DFAD1C0E80C
:100A8000454F002DF6D1BFF35F8FB1F902E04C69FD
:100A90000EEB4E0CBEF1000F4FEACC05086904EBDB
:100AA000CC0C3CDB665B4E800026C0E88F6F87F382
:100AB0001088BCF80200CCE902230130C0F30E001C
:100AC000012838BF0120059BACF80200CCF810309B
:100AD000069B40EA0E40CCF814300B69EFF310820D
:100AE00072B6D3E8CFCF0127BCF1000FF9D1C3E82C
:100AF0004C7FBCF1000FF4D1BFF35F8F8B88635341
:100B0000A1F804E00B69C3E88F6F82F3108801221B
:100B1000CB68097803F501538A405A60F0BD002381
:100B2000C0E88F3F87F310884FF0FF30F0BD00BF63
:100B300003464089B0EB214F37DD58690A1402EBB8
:100B4000420210B500EBC2001C69EFF3108C72B6C4
:100B5000D4E8CFEF0122BEF1000FF9D1C4E84E2F47
:100B6000BEF1000FF4D1BFF35F8F428889B292B219
:100B70008A4207D000221B69C3E88F2F8CF31088AC
:100B8000002010BD42F40042428001210022186979
:100B90009971C0E88F2F8CF310881C78DA680846AA
:100BA00002F50153A140596010BD0020704700BFFD
:100BB0002DE9F04182B004460E4600F0E9F84FF00E
:100BC000FF326FF00043241846EB0106A24273EB9C
:100BD00006013CBF14461E46A51F46F1FF37AC4236
:100BE00076EB07033CBF00252F4600F0D1F8281A0A
:100BF00067EB010C01287CF1000C06DA2046314637
:100C000002B0BDE8F04100F0CDB800F0C1F8854277
:100C100067EB010100290ADB0021174B2A460093EC
:100C200016483B460191FFF71FFF0130E6D04FF019
:100C3000000C134A1349536A9F4204D8906AA84291
:100C4000DCD29F42DAD10B68EFF3108072B6D3E8A2
:100C5000CF8F5FF0010EB8F1000FF8D1C3E848EF75
:100C6000B8F1000FF3D1BFF35F8F0B68C3E88FCFEC
:100C700080F3108820BFDEE73D0600103809002011
:100C800000000B40341300202DE9F04306460D46CA
:100C900083B0EFF30584E4B23CB12D4B5A6AAA420B
:100CA0001CD2002003B0BDE8F0832A4FD7F80C9087
:100CB00097F80080484600F063F808F1040859F8F6
:100CC00028301B1A301A65EB0101984271F10001BE
:100CD00010DB20BF1E4B5A6AAA42E2D314BF012484
:100CE00000249B6AB34234BF204644F0010003B0A5
:100CF000BDE8F08300F04CF8864265EB0101002965
:100D000014DB154B3846CDE9003432462B46FFF74D
:100D1000ABFE011E0ADD0E4B5A6AAA4216D39B6A2D
:100D2000B34211D30B48FFF703FFB6E7084B5C6AE9
:100D3000AC42B6D3641B18BF01249B6AB34234BFD4
:100D4000204644F00100ADE7AA42EBD120BFE9E71D
:100D500000000B40380900203D06001010B4054B80
:100D6000054C064AA04214BF1846581C5DF8044BB7
:100D7000FFF786BB2012002000800B40C4580010F3
:100D80000346416A0A46986A596A8A42FAD170470C
:100D9000034B596A0A46986A596A9142FAD17047D8
:100DA00000000B40074A536A9942FCD8994207D188
:100DB000044B02E05A6A914202D19A6A9042F9D8F1
:100DC000704700BF00000B4000EB400C4FEA8C0C5A
:100DD0000CF1804C0CF5803CF0B51646DCF8042094
:100DE000051FB2F5803F38BF4FF48032EDB238BFF7
:100DF000CCF80420012D2AD94FF40067254C0CF5BE
:100E00004052176054F82020B2B9DCF80020012DC0
:100E100082EA461202F0E0020CF5805632602AD9CE
:100E20004FF4006144F820304FF480330CF5005249
:100E30001160CCF80430F0BD6769B7FBF2FE0EF12B
:100E4000010E0EEB4E0EBEF1030EFCD2DDE70129C2
:100E5000D2D103240CF540521460DCF80820D207EC
:100E6000FBD5DCF800200B4C82EA461202F0E002CF
:100E70000CF5805632600122DCF800504D4005F040
:100E80000305356002FA01F1DCF808200A42FBD0C4
:100E9000C6E700BF24120020014B53F82000704722
:100EA0002412002070B4039D04682D0345EA034515
:100EB0001B4B002CB3FBF1F3B2FBF3F61FDB194A1B
:100EC000194B904214BF4FF480424FF40042174C2C
:100ED0001A6003F580531A60A36832EA0303FBD15A
:100EE000212200F540530433016086601A600268D5
:100EF000002AFCDA0822C5601A6070BC70470368DB
:100F000003F03F038B42DAD18368C3F30B03B34290
:100F1000D5D1C36803F4EE23AB42D0D1EDE700BFD7
:100F2000001BB70000800540002002400000024086
:100F3000012300EB4000800000F1804000F58410A8
:100F400041600360704700BF0023DB8A002242E853
:100F500000F2520201D4102118470421184700BFA3
:100F6000034AD2F82838002BFBD0BFF35F8F7047BD
:100F700000000E400021044B044ABFF35F8F43F88A
:100F8000041B9342F9D170470C080E402C080E4008
:100F900010B44FF48D704FF42A64064A064B07498B
:100FA0001460D06019605368002BFCDA5DF8044BC4
:100FB000704700BF0080044000A0044000B0FA0069
:100FC000704700BF08B50148FFF742FAE858001023
:100FD00038B5054C054DAC4204D254F8043B984753
:100FE000AC42FAD338BD00BFF85700103858001093
:100FF00010B40748074C084B084A094904601A60B6
:101000008B6832EA0303FBD15DF8044B704700BFE5
:10101000002002407F3BEFEF00300240F6FFF30379
:1010200000000240044BDB6CB3F5004F03D14FF4DA
:101030008022024BDA6470470000115000201150EA
:101040004FF0E022044BD2F8881D0B43C2F8883DD4
:1010500010EE3004704700BF030330006FF06041B2
:10106000044B054A19609368DB4333F06043FAD1BF
:10107000704700BF003002400000024010B545F24A
:101080005320FFF761FFBDE81040034604201847D6
:1010900010B545F25320FFF757FFBDE81040034657
:1010A00001201847FFF72CBA10B5054B054C4FF43B
:1010B00088721846A16804F097F9A06010BD00BFBF
:1010C0000000002000ED00E0002370B52B4C82B042
:1010D000C4F88430FFF75CFF0122294BDA63636CAC
:1010E000012BFCD10321264A244B11639C6B012C5C
:1010F000FCD10226052521460523224A22480096D6
:10110000FFF7D0FE21462B46204A21480095FFF7E5
:10111000C9FE0022042031461E4BFFF755FE214632
:10112000284600221C4BFFF74FFE002208201146E4
:101130001A4BFFF749FE002209201146174BFFF713
:1011400043FE002206201146134BFFF73DFE00220E
:10115000114B07201146FFF737FE0420FFF79CFED6
:1011600000240F4BA3FB0035AD0CE0B2294601343F
:10117000FFF7DEFE062CF8D102B070BD0000014082
:1011800000300140002F685900000540008C864760
:1011900000800540001BB70080D1F008006CDC0225
:1011A00083DE1B4386B003B451FC0804CDE9020181
:1011B00051FC0904CDE9040151EC0A04CDE9060112
:1011C00003BCF047BDE800504EEC00C4BDE8005041
:1011D0004EEC01C4BDE800504EEC02C400BD00005E
:1011E00000B5FFF7DFFF02E010FE30F4F8D441EC69
:1011F000100443EC112400EE010410EE010480EE13
:10120000200451EC1004704700B5FFF7CBFF02E05B
:1012100010FE30F4F8D441EC100443EC112400EE3D
:10122000010410EE210480EE200451EC30047047DC
:1012300000B5FFF7B7FF02E010FE30F4F8D410B5A8
:1012400041EC100443EC112451EC040453EC05244C
:10125000A0FB024C5FF0000EE0FB03CEE1FB02CEF0
:101260004CEC20440024E1FB03E444EC30E480EE49
:10127000200451EC5004BDE81040704700B5FFF762
:1012800091FF02E010FE30F4F8D441EC100443EC7E
:10129000112451EC2104A0FB01126FEA820252FBDF
:1012A000100052FB12F252FB1000A0EBD07C53EC6A
:1012B00004245CFB13F153EC1524A1FB022001FB79
:1012C000030053EC4424A2EB000050FB1CF24FEA55
:1012D000111312EB017043EBE27140EA515020EA26
:1012E000915020F0070053EC7524A0FB023C53EC16
:1012F000752400FB03CC01FB02CC53EC0424ACEBC3
:10130000824C40EA5C70A0F1010041EC400480EEA8
:10131000200451EC7004704700B5FFF743FF02E072
:1013200010FE30F4F8D441EC100480EE220410EEEC
:10133000B204704700B5FFF735FF02E010FE30F44D
:10134000F8D440EC700400EE010410EE210480EEAD
:10135000200451EC3004704700B5FFF723FF02E092
:1013600010FE30F4F8D440EC600400EE010410EEFE
:10137000210480EE200451EC3004704700B5FFF7E3
:1013800011FF02E010FE30F4F8D441EC800400EECE
:10139000010410EE010480EE400410EE13047047C7
:1013A00000B5FFF7FFFE02E010FE30F4F8D441EC88
:1013B000800400EE010410EE010480EE400410EE03
:1013C0003304704700B5FFF7EDFE02E010FE30F485
:1013D000F8D441EC100443EC112400EE010410EEAB
:1013E0003004C0F30070704700B5FFF7DBFE02E089
:1013F00010FE30F4F8D443EC102441EC110400EE5C
:10140000010410EE30F48CBF01200020704700BFB3
:1014100000B5FFF7C7FE02E010FE30F4F8D443EC4D
:10142000102441EC110400EE010410EE30F42CBF46
:1014300001200020704700BF00B5FFF7B3FE02E0B7
:1014400010FE30F4F8D441EC100443EC112400EE0B
:10145000010410EE30F42CBF01200020704700BFC3
:1014600000B5FFF79FFE02E010FE30F4F8D441EC27
:10147000100443EC112400EE010410EE30F48CBF94
:1014800001200020704700BF10B5044603F05CFC4B
:1014900028B10346034A2344934200D810BD0248B2
:1014A000FEF7D6FF00000820F458001003F054BCEB
:1014B000704700BF2DE9F04F83B09946DDE90DABD1
:1014C0000F9B884611469A07074616D1DA453AD24D
:1014D0000C460D46ABEB0A060E4422464B464146EF
:1014E00020200134B847B442F7D12946BAF1000FA1
:1014F00008D1204603B0BDE8F08F0C46BAF1000FCA
:1015000010D00E4655460C9B2E449A440191721BF6
:101510004B46013D41461AF8010D3446B847002DAF
:10152000F5D101990F9B9B07E3D5651AAB45E0D92F
:1015300022464B46414620200135B8475D4504F11F
:101540000104F5D3D5E70C46BAF1000FD9D1D0E7A5
:101550002DE9F04F0F9FDDF8248017F0020F0A9C51
:101560009DF82CA00E9DDDE90C9644D1F5BBB4424C
:1015700041D207F0010B04F1FF3C4FF0300EC444A0
:1015800004E00134A6420CF801EF01D9202CF8D177
:10159000BBF1000F00F08880A5422CD904F1FF3C7C
:1015A0004FF0300EC44404E00134AC420CF801EFBB
:1015B00021D0202CF8D117F0100F0ED017F4806F27
:1015C00054D1A64263D0A54261D0B9F1100F50D0DA
:1015D000B9F1020F56D0202C29D12024CDE90B5788
:1015E000CDE90984BDE8F04FFFF764BF17F0010BA8
:1015F00034D1B442BFD317F0100F1ED017F4806F50
:10160000E3D1002CDDD1B9F1100F63D0B9F1020F95
:1016100077D0302488F800400124BAF1000F11D1AE
:101620007E0748D52B2608F804600134D6E7264605
:1016300001344FF0300C08F806C0202CCDD0BAF1A0
:10164000000FEDD02D2608F804600134CDE90B57CA
:10165000CDE90984BDE8F04FFFF72CBFBAF1000FC8
:1016600030D0B44205F1FF3585D395E7B9F1100FBD
:10167000B3D1BE063BD5202CAFD0582608F8046065
:101680000134A8E7202CA8D02646013407E0661EC6
:10169000B9D0B9F1100F36D0B9F1020FC9D14FF05E
:1016A000620C08F806C096E717F0100FC5D017F4C3
:1016B000806F86D089E73E0790D5202608F8046021
:1016C00001348BE717F00C0F00D0013DB442FFF45A
:1016D00052AF61E7BC0612D4782488F80040302469
:1016E00088F801400224BAF1000F99D0AAE7202C13
:1016F0003FF473AF782608F8046001346BE7582490
:10170000EBE76224E9E717F0200FA4F1020C04D004
:101710004FF0580E08F80CE08BE74FF0780E08F801
:101720000CE086E700B9704701F070BB10B1D1E959
:1017300000311847704700BF2DE9F04F97B09DED7D
:10174000207BDDE9225B0746884651EC170B249C81
:1017500099460C920B4602468DED047B0794FFF7E9
:1017600035FE002840F0F481DDE904014FF0FF323E
:101770006FF48013FFF73CFE002840F01B81DDE989
:1017800004014FF0FF32AC4BFFF76EFE002840F033
:10179000EE80DDE90401A4A3D3E90023FFF764FE92
:1017A000002840F0D380DDE90401A1A3D3E90023A0
:1017B000FFF71EFE002840F0C980DDE90401002289
:1017C0000023FFF715FE002840F0E88023460D9027
:1017D00013F4806F08BF062530212B460EAAA5F111
:1017E000200605E0013BB34202F8011B00F09381A3
:1017F000092BF7D81E46ED1ADDE90401FFF7C2FDFB
:101800008E4B044603EBC60393ED007B8DED087B06
:10181000FFF794FD02460B46DDE90401FFF7F8FCF3
:10182000DDE90823FFF708FD02460B46CDE90A2350
:10183000FFF7BAFD8246FFF793FD02460B46DDE94E
:101840000A01FFF7E5FC02460B46CDE90A23002218
:101850007B4BFFF709FE002800F0FE800AF1010A29
:101860005046FFF77DFD02460B46DDE90801FFF714
:10187000D3FD10B14FF0000A0134002E00F0FD80BE
:10188000681E0EABDFF8CCC118440FE0ACFB0A2198
:10189000C90801EB8102AAEB42023032BAF1090F0A
:1018A00000F8012F40F21C818A461D46202D05F1CB
:1018B000010306F1FF36E9D12025691E0EAB614810
:1018C000194410E080FB0462C3EBA20303EB830224
:1018D000A4EB420404F1300201351C4601F8012F4B
:1018E000002B00F0EB80202D4FEAE473EAD1079B38
:1018F00003F00303012B18D1BBF1000F15D00D9B92
:10190000002B00F00A810BF1FF3BBBF1200F0CD93B
:101910006B1E0EA930220B4405E001355D4503F82E
:10192000012F80F0D180202DF7D1079B0EACCDE99F
:1019300002B341464B4638460C9A01950094FFF796
:10194000B9FD8246504617B0BDE8F08F079B9DED6C
:10195000047BCDE923B341464B4638460C9A8DEDC6
:10196000207B229517B0BDE8F04F00F045B9610724
:1019700023464CBF042303234146219338464B465C
:10198000079A48BF304CCDE922B258BF2F4C0C9A71
:10199000209417B0BDE8F04FFFF78CBDDDE90423BC
:1019A00000200021FFF734FC0123CDE904010D9351
:1019B00023460DE723469C0740F0AA80BBF1040FA5
:1019C00040F2A6800C9B1D461C1F04EB0B0A2A4606
:1019D0004B46414620200135B847AA45F7D1554628
:1019E0001B4C261F14F8010D2A464B464146B847AA
:1019F000B44205F10105F5D1079B0AF1040A9807E5
:101A0000A0D50C9CAAEB04039B459BD952464B46A0
:101A1000414620200AF1010AB847AAEB04035B45BE
:101A2000F4D38FE7AFF300800000000065CDCD4117
:101A30000000000065CDCDC1FFFFEF7FD059001041
:101A40000000E03F67666666485900105059001074
:101A50005C590010CDCCCCCC0022DDE90A01634BEF
:101A6000FFF7C6FC00287FF408AFBAF1000F6AD177
:101A70000AF1010A002E7FF403AF2046FFF75EFC57
:101A800002460B46DDE90401FFF7C2FB02460B46A6
:101A9000CDE904230022554BFFF7AAFC00287FF470
:101AA0000CAFDDE904010022504BFFF7DDFC0028FC
:101AB0007FF403AF013424F00104FEE6079B03F03A
:101AC0000303012B00F08280202D3FF42EAF0D9BED
:101AD0007BB32D220DEB050383F83820013524E775
:101AE000202B3FF4E9AE0EAA15441E44302204E038
:101AF000202B05F8012F3FF4DFAE9E4203F10103D6
:101B0000F6D12E220DEB060383F83820751CD4E69F
:101B1000DDF830A063E720256EE6079B13F00C0F7D
:101B200050D00BF1FF3BAB453FF6F2AE202D3FF41A
:101B3000FCAE079B5A0701D52B22CBE71B077FF58D
:101B4000F4AE2022C6E71AF0010F3FF496AE8FE7FD
:101B5000A60734D1BBF1030F31D90C9B1D46DC1E07
:101B600004EB0B0A2A464B46414620200135B84774
:101B70005545F7D155461E4CE61E14F8010D2A4670
:101B80004B464146B847A64205F10105F5D1079BF2
:101B90000AF1030A9D077FF5D5AE0C9CAAEB04035E
:101BA0009B457FF6CFAE52464B46414620200AF178
:101BB000010AB847AAEB04039B45F4D8C2E6DDF856
:101BC00030A0D7E7AB453FF6A3AEAEE6BBF1000FC2
:101BD0003FF47AAF0D9B002B9FD00BF1FF3B5D458F
:101BE000FFF496AE202D7FF474AF9EE60000E03F38
:101BF00057590010000000002DE9F04F9FB02A9EB9
:101C0000DDE92845074693460891099322462B466D
:101C1000204629460E96DDE92BA6FFF7D7FB0028C4
:101C200040F0BE80204629464FF0FF32784BFFF748
:101C30001BFC002840F0B480204629464FF0FF32BC
:101C40006FF48013FFF7D4FB002840F0A9802046F2
:101C5000294600220023FFF7CBFB002840F0D58166
:101C6000CDE90A45DDE90A239046994606F400626B
:101C700016F480630F92139340F0A18058EA090391
:101C800040F0CA80002A40F0E38106230E9316F04C
:101C90000202109240F0D4815346042B38BF042333
:101CA0000C920422043B12920F93204629460022F4
:101CB0000023FFF79DFB002840F0F3819DED0A7B98
:101CC0000F9B5A4603930E9B8DED007B029326F4E7
:101CD000006304933846099B0899FFF72DFD0246DF
:101CE00016F0200F099B08990CBF6520452002F1D2
:101CF0000108B8470C9A129B16AC5D1E82EAE2738B
:101D0000A3EBE273D10F002622469946DFF804C107
:101D100001E0202E10D0CE46ACFB0930C00800EB0D
:101D20008003A9EB43033033BEF1090F814606F16E
:101D3000010602F8013BECD80523002006930A2394
:101D400005950094099D089C4246CDE90330CDE9F4
:101D500001612B4621463846FFF7FAFB109A804670
:101D6000D2B1A0EB0B06B24516D90BEB06022B46FF
:101D7000214620200136B847B245F6D80BF1FF3393
:101D80005344CBF10102A3EB08034244924538BF10
:101D9000002308F10108984440461FB0BDE8F08FC9
:101DA0005A463846CDE92845CDE92BA60E9C099B1D
:101DB00008992A941FB0BDE8F04FFFF7BDBC58EA60
:101DC00009032BD1002A3FF462AF00230C930E9B32
:101DD0000C9A934200F3B9814FF00008204629463F
:101DE00000220023FFF704FB002840F013819DED43
:101DF0000A7B26F4006646F480668DED287B5A4601
:101E00003846CDE92A8A099B08992C96D2E700BF6B
:101E1000FFFFEF7FCDCCCCCC06230E93C9F30A5045
:101E2000A0F2FF30FFF78AFAC1A3D3E90023FFF73E
:101E300003FAC1A3D3E90023FFF7D6F9C9F31309C5
:101E4000CDE90C0149F07F5140460022B24B41F4EC
:101E50004011FFF7DDF9A4A3D3E90023FFF7ECF964
:101E600002460B46DDE90C01FFF7BEF9FFF78AFADF
:101E70000C90FFF763FA9EA3D3E9002380468946BE
:101E8000FFF7DAF90022A54BFFF7AEF9FFF77AFA70
:101E9000034649464046129397A3D3E90023FFF730
:101EA000CBF9804612988946FFF748FA94A3D3E904
:101EB0000023FFF7C1F902460B4640464946FFF7AB
:101EC000A7F902460B4680468946FFF7B5F9424618
:101ED0004B46CDE9100140464946FFF785F90022FF
:101EE000CDE91401DDE910018D4BFFF7CBF900229C
:101EF0008C4BFFF779F902460B46DDE91001FFF73D
:101F0000C1F90022884BFFF76FF902460B46DDE965
:101F10001001FFF7B7F942464B468046894600203C
:101F20004FF08041FFF774F902460B4640464946A0
:101F3000FFF75AF902460B46DDE91401FFF7A2F953
:101F400000227A4BFFF750F9129B002203F2FF3C6C
:101F50004FEA0C53FFF770F980468946DDE90A0124
:101F600042464B46FFF744FA50B10C9B4046013BBA
:101F700049460C9300226B4BFFF784F98046894653
:101F80000C9A43466332C62A06F002021092494672
:101F90000F9A2CD8002A5ED0042212920B433FF4F1
:101FA00016AFDDE90A0158A3D3E90023FFF748FA89
:101FB00048B1DDE90A0156A3D3E90023FFF718FA77
:101FC00000287FF404AF0E9B002B50D0139A002AF8
:101FD0007DD0013B0E93129B9A4505D9109B002B97
:101FE00000F0AE800223109300230F9344E022BB45
:101FF000BAF1050F4FD906F00203002B49D1052392
:102000001293AAF105030F933AE005F100430A94F5
:102010000B9327E626F4006646F4806638462C9635
:10202000DDE90A67344607F100455A46CDE92A8AB8
:10203000CDE92845099B0899BCE605221292ADE737
:1020400000230222CDE90F3204220C9312922CE6D7
:102050004FF00508C2E6BAF1040F1FD9109B002B00
:1020600078D104231293AAF104030F9304E0129B86
:102070009A4531D80E9B0F930C9B002B3FF415AE65
:10208000DDE90A0142464B46FFF7FCF8CDE90A01BB
:102090000BE60223109305231293F1E70423129316
:1020A000EAE7DDE90A45A0460F9B05F100490393E5
:1020B0000E9B5A46029326F4006304933846CDE9FA
:1020C0000089099B0899FFF737FB024608E6129B37
:1020D0009A4544D80F92CFE7109B8BB30E9B0F937A
:1020E00002231093C8E700BF61436F63A787D23F05
:1020F00071A379094F930A401655B5BBB16B0240E5
:10210000EF39FAFE422EE63F2D431CEBE2361A3F32
:102110000000000080842E410000F83F0000E03FF6
:1021200000002C4000002440000018400000F03F58
:10213000FB799F501344D33FB3C8608B288AC63FB6
:10214000129BAAEB03030F9396E7A3EB020808F197
:10215000FF3843E604231293022310938CE7109B6D
:10216000002BEDD002230F92109385E72DE9F04F5D
:102170009BB0249C954D0A94954CB1F1000A18BF70
:10218000834625601878934C914608BFA34609936F
:10219000002800F093824FF000080AE042464B46C8
:1021A000514608F10108D847099B1878002800F02B
:1021B000CE80099B252803F101030993EED11C462B
:1021C0000023224612F8010BA0F1200110290AD8A1
:1021D000DFE801F04009093C090909090909093842
:1021E000093409093000A0F130010929099440F2AD
:1021F0008A802A2800F0F08000252E2800F09680A2
:102200000026A0F1680112292DD8DFE811F049015C
:102210002C0043012C0038012C002C002C002C0039
:102220002C002C002C0027002C002C002C002C0053
:102230002C002700144643F00103C2E7144643F084
:102240000203BEE7144643F00403BAE7144643F022
:102250001003B6E7144643F00803B2E7099948783B
:1022600043F480730132672809927ED8242840F213
:10227000C180A0F12502422A00F2BC80DFE812F002
:102280005001BA00BA00BA00BA00BA00BA00BA00E7
:10229000BA00BA00BA00BA00BA00BA00BA00BA006E
:1022A000BA00BA00BA00BA00BA00BA00BA00BA005E
:1022B000BA00BA00BA00BA00BA00BA00BA00BA004E
:1022C000190137011901BA00BA00BA00BA00BA0000
:1022D000BA00BA00BA00BA00BA00BA00BA00BA002E
:1022E000BA00BA00BA00BC01BA00BA00BA00BA001B
:1022F000BA00BA00BA00BA00BA00BC015801BC0169
:10230000190137011901002500E0013205EB8505AF
:1023100000EB45051078303DA0F130010929F4D9D2
:102320002E28099202F101027FF46AAF099943F461
:10233000806348781146A0F13006092E40F22181D1
:102340002A2800F02F8109920026013259E74446DD
:10235000C14501D809F1FF384B464246514600209D
:10236000D84720461BB0BDE8F08FA0F16902D2B279
:102370000F2A3FD8012149F241079140394040F0EE
:10238000F3800A2A3DD0072A34D10A9D55F8042B40
:10239000002A00F0138143F0210012AB1F460B937B
:1023A00003E0202900F014811A4602F00F042346AE
:1023B000092C94BF303337330F2A07F8013B01F162
:1023C00001014FEA1213ECD802E100BF6D210010A9
:1023D0005C120020B11400100A99099851F8045BAE
:1023E0004078002DCDE90921BCBF43F002036D42C6
:1023F000013202E742464B46514608F10108D847F0
:10240000D2E60A99002E51F8047B18BF324638787C
:1024100008BF4FF0FF32002800F07B83BC18A446B1
:102420003A4604E012F8014F002C00F03F81944539
:10243000F8D16446E41B5A0540F12281B44228BF1A
:10244000344613F0020300F088820223CDE90A51DA
:1024500042461D46464408E04B465146D84717F8C9
:10246000010F08F1010810B142464645F4D12B4650
:102470000B990A9D002B40F041810A9194E609993D
:1024800048786C287FF4ECAE0A46887843F44073B1
:102490000332E8E6099943F4007348780132E2E632
:1024A00009994878682800F0038143F080030132DD
:1024B000D9E6672800F0D980472800F0DC8045285D
:1024C00000F0DB80CDE903530A9B0296073323F02B
:1024D00007031C464246F4E802674B4651465846FD
:1024E000CDE900670A94FFF787FB80465CE6462843
:1024F00008BF43F02003CDE903530A9B029607333C
:1025000023F007031C464246F4E802674B46514657
:102510005846CDE900670A94FFF70EF9804643E676
:1025200042464B465146252008F10108D8473BE674
:102530000A9A990702F1040408F1010640F1C680E5
:1025400010784B4642465146D847012D88BFA844D3
:1025500040F2BD8132464B46514620200136D847D5
:102560004645F7D10A941FE66F2800F0818040F2BB
:102570004882782800F090810A2723F01003BC4697
:1025800041E0002606EB860600EB4600A0F130068F
:1025900011F8010FA0F13002092AF3D90A46099176
:1025A00001322EE6DDE9092151F8046B9078023200
:1025B00009920A91013226EAE67622E623F010001B
:1025C00013F4806240F021003FF4E7AE12AB0B93AE
:1025D0000B9B06900093082310200593002342468E
:1025E000CDE9023001914B46514658460496FEF71C
:1025F000AFFF0A958046D7E5582862D0622840F0A0
:102600008F800227BC4613F4806000F0DD8023F049
:102610000D0313F4007240F081810A990F1D13F429
:10262000807140F037825C060A9A40F13B81127853
:10263000002A40F04E8123F01003002800F0498169
:10264000114612AA0B92CDE90553CDE903C60191BB
:102650000B9B4246009300235146029358464B463B
:10266000FEF776FF0A9780469EE543F4006329E76C
:102670000827BC46C7E743F4006343F0200321E783
:1026800013F0020300F08E8102230A951E460D46C8
:1026900042464B465146D84717F8010F08F101084A
:1026A0000028F5D1294633460A9DE3E6D41BC2E64D
:1026B0000A46887843F0C0030332D4E504468046D6
:1026C00046E6102743F02003BC469CE7012D40F26C
:1026D000F880464608F1FF372F4432464B465146B4
:1026E00020200136D847BE42F7D10A9B32461878DF
:1026F00051464B46D847A8440A9455E54646A5425C
:102700007FF6BBAEA844A8EB04080C4632464B4605
:10271000514620200136D8474645F7D12146ACE640
:1027200013F4806200F0BB804FF4806223F0110C40
:102730001CF400770A9B4AD11CF4807003F1040456
:1027400040F034811CF0400F40F0A3801CF0800F5B
:1027500000F0D381B3F9001081EAE177A7EBE177CC
:10276000BFB2CB0F002900F056813A4612A90F469E
:10277000DFF8D8E30B910A930C9501E020280FD0E5
:102780001546AEFB0213DB0803EB8301A2EB41010C
:102790003031092D1A4600F1010007F8011BEDD870
:1027A0000A9B0C9DCDE9055CCDE9010304960B9BCA
:1027B000424600930A235146039358464B46FEF780
:1027C000C7FE0A948046EFE423F00C0321E70733A9
:1027D00023F00703194608465B6850F8081BDF0F13
:1027E0000A9051EA030062D1002A40F09F8113460B
:1027F000114612AACDE90C7500201546CDE90E68E8
:10280000DFF848E30B9201E020282DD05A1842F15E
:102810000002AEFB027828F0030707EB9807D21BF3
:102820001E469B1A61F100070C464FF0CC3101FBAC
:1028300003F10EFB0711A3FB0E731944052307F0E8
:102840000108A8FB03389B180A2E03F130034FEA56
:10285000570774F1000405F8013B00F1010047EA55
:10286000C1734FEA5101CFD2DDE90C75DDE90E6885
:102870000B9B424600930A23CDE9055CCDE9010795
:10288000049603934B4651465846FEF761FE804638
:102890008AE419780F4664E71027BC46B3E623F0B4
:1028A000100C45E71C064CBF12881268C0E60A46A9
:1028B000191E01DB13469CE75242134661EB4101AE
:1028C00097E713465146187842464B46D847B046DC
:1028D00048E613F0200F14BF4120612012ACA64639
:1028E0000B940A93A0F10A040C9502E0202912D05F
:1028F0002A46B2FBFCF50CFB1520C3B2092803F1F4
:1029000030008ABF1B19C3B2DBB262450EF8013B2F
:1029100001F10101EAD20A9B0C9D94E60A9A073262
:1029200022F00702516852F8084B8E460A9254EA88
:10293000010276D123F01003002872D00022114644
:1029400012AA0B92CDE905530B9B4246009300233C
:10295000CDE903C60191029394E7A54298BF0134E3
:102960007FF674AD4FF48063CDE90A7505EB08027C
:102970001F460D46141B42464B465146202008F187
:102980000108D847A045F6D13B460A9F294638782A
:102990000B9D6C1C00283FF470AD002B3FF475AE0E
:1029A000002353E5A542DFD801346EE61968CB0F4A
:1029B000002900F0A88081EAE172A2EBE17212A97D
:1029C0000846DFF888E10B910A930C9501E0202F6F
:1029D0000FD01546AEFB0213DB0803EB8301A2EB1D
:1029E00041013031092D1A4607F1010700F8011B9A
:1029F000EDD80A9B0C9DCDE9055CCDE901730496E9
:102A0000D5E6692823F0100C40F08C8013F4806226
:102A10003FF48EAE88E6002A3FF4A8AE12AA0B92CD
:102A2000C0E613F0200F14BF41226122002012A93A
:102A30000A3ACDE90E68CDE90C35CDF844B006462A
:102A40008846754693460B91CDF840C003E0202E92
:102A500017D004460D4629463A460023204602F088
:102A6000BFFED2B2092A02F1300388BF02EB0B038A
:102A7000BC42DBB275F1000508F8013B06F1010626
:102A8000E5D23146DDE90C35DDE910CBDDF83C80DF
:102A90000E9E57E70A99096851B923F0100338B11F
:102AA00012A90B91CDE90553CDE903C60192CFE5FB
:102AB00013F0200F14BF4120612012ACA6460B94E6
:102AC0000A93A0F10A040C9502E0202A12D02946AC
:102AD000B1FBFCF50CFB1510C3B2092803F1300063
:102AE0008ABF1B19C3B2DBB261450EF8013B02F18C
:102AF0000102EAD20A9B0C9DD4E7196881EAE177CA
:102B0000A7EBE1772DE6002A3FF459AF12AA0B920A
:102B100071E713F480640DD013F0020412D0044660
:102B20004646ECE50A276346BC466CE512AB00203E
:102B30000B939DE613F002037FF4E0AD002D7FF4CC
:102B400013AF9AE4002D7FF40DAF96E4CDCCCCCC3E
:102B500070B594461E4605460C4684B04FF0FF32D1
:102B6000634602A900960348CDE90254FFF7FEFA36
:102B700004B070BD2D17001010B5094B84B01C684F
:102B80004CB1034600914FF0FF3203A90548A0471E
:102B9000012004B010BD00F07BF9204604B010BD48
:102BA0005C1200202517001000BEFDE7074A03460F
:102BB000106838B1064903448B428CBF4FF0FF3098
:102BC00013607047034908461160F3E7581200206C
:102BD000000008200C14002008B5FFF7E5FF00BF37
:102BE00038B5064C064DFEF7F3F9AC4204D254F862
:102BF000043B9847AC42FAD338BD00BF38580010A8
:102C00004058001003680846114618472DE9F04166
:102C10001546427D07468846002A46D0002D1DDD18
:102C20000B780A2B23D0012D4FF0000C18D046460C
:102C3000012416F8012F21460A2A04F1010422D0AA
:102C4000A542F6D165450BDC08EB050313F8013C02
:102C5000A3F10D03B3FA83F35B093B75BDE8F08183
:102C60003B68A5EB0C0108EB0C009847ECE7037DF3
:102C7000002BD8D1036802210F489847012DE3D0DB
:102C80004FF0010CD3E716F8013C0D2BD8D08C4542
:102C900008EB0C00A1EB0C0101DA3B68984702211C
:102CA00005483B689847A446CAE7294640463B6822
:102CB000BDE8F041184700BF205A00100B682DE90D
:102CC000F041802B0D46064605D05A1C2B442A6045
:102CD0001E71BDE8F0810F4B1C68A4B10E4F01F1CD
:102CE000040801E0246974B12368002BFAD03B6822
:102CF0000BB1A342F6D1204641462A68FFF786FF72
:102D00002469002CF0D1002301222B442A601E717B
:102D1000BDE8F0814C120020541200202DE9F0474C
:102D200082B00D4691461C460646FEF731F84FF03C
:102D3000FF3C6FF000472E4A821841F10003944592
:102D400077EB03013CBF62463B462A4802F050FD48
:102D50006B1C804640D00CB3274F284B1C68B4B185
:102D6000B9F1000F1CD1DFF89C9001E0246974B127
:102D70002368002BFAD0D9F800300BB19C42F5D172
:102D800020462A463146B8472469002CF0D1B8F1D4
:102D9000000F26D1284602B0BDE8F087184FDCE7C7
:102DA0004FF00A0ADFF85C9002E02469002CEED0B4
:102DB0002368002BF9D0D9F800300BB1A342F4D12D
:102DC0002A4631462046B847012220460DF1070128
:102DD0008DF807A0B847E8E7304602F07BFB0546D0
:102DE000B9E7044802F000FD284602B0BDE8F087CC
:102DF00040420F00B80E00200D2C00104C12002095
:102E0000052C00105412002000207047F0B583B04C
:102E100006468DF80700FDF7BBFF4FF0FF356FF05A
:102E20000044174A821841F10003954274EB0301F4
:102E30003CBF23462A46134802F0DAFC124B0746F1
:102E40001C689CB1114D01E024697CB12368002B02
:102E5000FAD02B680BB19C42F6D1204601220DF12D
:102E60000701FFF7D3FE2469002CEFD117B93046D4
:102E700003B0F0BD034802F0B7FC304603B0F0BD2C
:102E800040420F00B80E00204C12002054120020C7
:102E900038B5044602F01EFB012305461A462046BB
:102EA0002946FFF73BFF084B1C682CB163682BB128
:102EB00098472469002CF9D1284638BD2469002C94
:102EC000F4D1284638BD00BF4C1200202DE9F04156
:102ED000A2B004460D46FDF75BFF4FF0FF376FF0E1
:102EE0000046264ADFF8A480821841F10003974289
:102EF00076EB03013CBF3A463346214802F078FCAA
:102F000000272B462246064601A91E480197FFF7D7
:102F10001FFE019B0546D8F80040C3B1002C2BD002
:102F2000194F01E0246974B12368002BFAD03B6883
:102F30000BB1A342F6D12046019A02A9FFF766FE23
:102F40002469002CF0D10023D8F8004001932CB163
:102F5000636843B198472469002CF9D12EB92846FB
:102F600022B0BDE8F0812469F1E7054802F03CFC9D
:102F7000284622B0BDE8F0810194EFE740420F00FF
:102F8000B80E0020BD2C0010541200204C1200205E
:102F90000FB400B583B004A951F8040B0191FFF7F9
:102FA00095FF03B05DF804EB04B07047F8B5044634
:102FB0000D46EFF3108772B60C4B9B6853F82060F8
:102FC000B14204D00A4B9E420BD2FDF7FBFF074BE8
:102FD0009B6843F82450BFF35F8F87F31088304617
:102FE000F8BD044B9E42F2D3EFE700BF00ED00E0D6
:102FF000100100101C0100102DE9F04100270124F0
:10300000944602680546D7665160D4661C1E384651
:103010009DF818601EDD297986F0010789027F027C
:1030200004F1FF3E70450CBFB8464FF000081CF895
:10303000013B0B4343EA08031361536BD906FCD5EC
:10304000D2F8801049B970451CD0013084424FF04D
:103050000001E7D12E71BDE8F0814FF00108536DFA
:10306000536B9B05FCD5136EB8F1000FEDD069B121
:10307000CB070BD411F0080F08BF4FF0FF302E71B3
:10308000BDE8F081002EE0D1B046E9E74FF0FF3017
:10309000E0E700BFF8B5044605200F46FDF7FCFE4B
:1030A00000EB570CBCFBF7FC204D0CEB4C02A5FBD6
:1030B00002651F49AE088F4200EB4003ACEB95055B
:1030C0002ED801F1D64101F5A10101F62C01A1FB99
:1030D00003139B0D013300214F2A98BF012224685E
:1030E000B0FBFCF0E166216804F5805781F0040133
:1030F00001F00601396088BF0C49E56184BFA1FB7E
:10310000021292092662C4F8A0202246012152F838
:103110007C5F6B409BB202F580521360E166F8BDA4
:103120000449A1FB0313DB0D0133D4E7CDCCCCCC98
:103130003F420F00893BE6550E4A30B4904214BF1F
:10314000202210220C4D0D4B0D4C2A601A60A368F2
:1031500032EA0303FBD140F26515032402680371D0
:10316000D3661560D3639363C2F8884030BCFFF721
:1031700091BF00BF500900200020024000300240F3
:103180000000024010B49DF8044001945DF8044B27
:10319000FFF732BF012307480749084A03600B6065
:1031A0009368D907FCD50123054A13601368DB0532
:1031B000FCD5704700200240003002400000024071
:1031C00000000A402DE9F041044600F0B5FF364A00
:1031D000364E1368013313603368002B34D0344FFC
:1031E000E36A3A684AB3334D334934480A6804F114
:1031F000040C01320A6002689A4238BF036003EB94
:10320000830305EB830041689B00EA58D1F808E08E
:10321000A160C4F80CE00132CEF804C0C1F808C0C7
:103220006061EA5000F096FF3B6823B13268E36AC0
:10323000D26A9A4210D3BDE8F08132681D4DD26A3D
:103240009A4298BF3460CFE734601368012B07D0EF
:10325000E36A184D164FC7E7BDE8F04100F060BFC4
:10326000144D2F4605F178083846143701F0DCF884
:103270004745F9D1DFF86080114F404601F0D4F89E
:10328000384601F0D1F80F4801F0CEF80E4801F0B1
:10329000CBF80E4801F0C8F80D4BC3F800800D4B79
:1032A0001F60E36A024F9FE73C130020A01200203A
:1032B000CC130020B4120020481300204C1300202F
:1032C0008C130020B8130020E4130020D01300203A
:1032D000A8120020AC1200207813002080B5124DF7
:1032E000124F134EDFF84C8014E000F025FFFB680E
:1032F000DC68201D01F0CEF83368013B33602B6899
:10330000013B2B6000F026FF206B00F0C7FE20463B
:1033100000F0C4FE2B68002BE7D1D8F80030012B59
:10332000F8D900F0FDFEF5E740130020E41300207B
:103330003C130020B41200202DE9F04F4C4B83B019
:103340001D6801351D60002D67D04A490B689D42FC
:1033500077D3494E33681868002800F08480002035
:10336000AA4607468146DFF828E1444C019147E030
:103370005869D3E9022CC2F808C0CCF8042042688E
:103380008A42026808BFC0F804C0013A5F61026067
:10339000986A70B1D3E9072CC2F808C0CCF80420B1
:1033A0004268AA42026808BFC0F804C0013A9F629E
:1033B0000260DA6ADEF8000002EB820C04EB8C0893
:1033C0008242D8F8040054F82C50D0F808B0986025
:1033D000C3F80CB0CBF804108160C3F81480284BFC
:1033E00088BFCEF8002019680135336844F82C50A6
:1033F000C96A1B688A4288BF49F00109002B30D096
:103400003368DB68DB685A68191D924503F11805BB
:10341000AED2019948460A6014E0174B194A186861
:1034200011681960184910600A6801320A601A6848
:10343000126882B94FF0FF330E490B600B689D4252
:1034400087D20020114B1B68002B18BF40F00100F1
:1034500003B0BDE8F08F1B680649DB681B680B6092
:1034600074E7484601994FF0FF330B60EAE700BF6D
:10347000F8130020AC130020A8120020B412002082
:10348000A0120020AC120020B01300200414002071
:103490004C1300202DE9F8439500804628460F463E
:1034A000994600F0EFFD002872D00646702000F02B
:1034B000E9FD0446002868D0043D7022002135440F
:1034C00001F01AFF25F007052663002F3BD03B785B
:1034D00084F83430002B36D07B7884F8353093B3C1
:1034E000BB7884F8363073B3FB7884F8373053B345
:1034F0003B7984F8383033B37B7984F8393013B3AF
:10350000BB7984F83A30F3B1FB7984F83B30D3B11E
:103510003B7A84F83C30B3B17B7A84F83D3093B188
:10352000BB7A84F83E3073B1FB7A84F83F3053B1F4
:103530003B7B84F8403033B17B7B84F8413013B15E
:10354000BB7B84F84230089F201D052F28BF05272C
:10355000E762676400F074FFC7F1060704F1180022
:1035600000F06EFF4B4642462846216BA76124615E
:10357000646200F011FE099B206003B11C602046CC
:10358000FFF720FE0120BDE8F883304600F086FDFD
:103590004FF0FF30BDE8F883F8B50446254E00F043
:1035A000CBFD002C3FD0271D384600F073FFA36AE7
:1035B0001BB104F1180000F06DFF1F4A1F4D136886
:1035C000013313603368A3422B681FD01C4A136871
:1035D000013B13601B4B1A68126892B11A681A4BB0
:1035E000D26812681A6000F0B5FD206B00F056FD3D
:1035F000204600F053FD2B6813B13368A34214D06A
:10360000F8BD4FF0FF32104B1A60ECE7002BDDD015
:1036100039460E4800F018FF0D4A13680133136055
:1036200000F098FDE7E73468BDE7BDE8F84000F03A
:1036300077BD00BFA012002048130020CC1300204B
:103640003C130020A8120020AC130020E41300203B
:10365000401300202DE9F8434FF4007000F012FDF4
:1036600088B30646702000F00DFD044678B30027AD
:10367000DFF898903946702201F03EFE06F5FE759F
:10368000C4E90C690626201D00F0DAFE25F00705C6
:1036900004F1180000F0D4FE3B46174A216B28467F
:1036A0002461A661646200F077FD0346DFF8608064
:1036B000236020460127C8F80040FFF783FD00F093
:1036C0009FFCB8420AD00D4B1B68BDE8F88330461A
:1036D00000F0E4FC094B1B68BDE8F88300F036FEFF
:1036E0004FF0FF3400220649064B074804600F6084
:1036F0001A6000F08DFDE6E7DD320010245A00105C
:10370000CC130020F8130020AC13002049444C4592
:10371000A4130020024A136801331360704700BFEE
:10372000441300202DE9F04FDFF86C8183B000F0E6
:1037300003FDD8F80030013BC8F80030D8F800E0AD
:10374000BEF1000F40F081804C4B1B68002B7CD0F9
:10375000DFF848C1DCF80030002B00F08B80484BCC
:10376000DFF83C91474E0193DCF80C30DB689A6A35
:10377000D3E9070154688160486003F1180084426E
:1037800008BF51601168C3F828E0013911605A6917
:10379000D3E90241A1604C6054681D1DAC4208BFD2
:1037A00051601168D9F8000001391160DA6A82426B
:1037B000354802EB820188BFC9F80020006806EB9B
:1037C00081077C68D0F82CA056F82100D4F808B006
:1037D000013052459C60C3F80CB0CBF80450A56092
:1037E0005F6146F8210037D90122019B1A60DCF89D
:1037F0000030002BB8D1254B1A681268002A34D04B
:103800001A68234BD26812681A60224D2C689CB14A
:103810000126019F05E0FFF78FFD00B13E60013CEE
:1038200009D0D8F80030002BF5D02B68013C03F10B
:1038300001032B60F5D12C60019B1B682BB1124B4F
:1038400001241B6800F06CFC00E0002400F082FC06
:10385000204603B0BDE8F08FDCF80030002B83D1A8
:103860000A4B1A681268002ACAD14FF0FF32084B7F
:103870001A60CAE7024B0193C7E700BF3C13002060
:1038800004140020B4120020A0120020A81200206E
:10389000AC130020B413002044130020B813002000
:1038A0004C13002008B900F03BBC194A2DE9F04147
:1038B00013680446013313601649174B174D184A15
:1038C0000E681768D3F800802868043000F0E2FD25
:1038D0002B68A41929685C600DD23846043100F0C9
:1038E000C1FD104B1A68944238BF1C60FFF71AFFE5
:1038F00048B1BDE8F0814046043100F0B3FDFFF768
:1039000011FF0028F5D1BDE8F04100F009BC00BF6F
:1039100044130020F8130020AC120020A012002055
:10392000A8120020AC130020014B1868704700BF9C
:10393000F8130020054B1B680BB9FFF7FDBC044AC8
:103940000020136801331360704700BF4413002048
:10395000B4130020234B1B681BB10122224B1A60B9
:103960007047214A30B4214C13602068204A00EB94
:10397000800352F8233081008BBB431E03EB830589
:1039800052F825509900B5B9831E03EB830552F810
:10399000255099007DB9C31E03EB830552F82550CD
:1039A000990045B9031F03EB830552F82550990090
:1039B0000DB9431F9900194402EB8100024641688A
:1039C000083249689142416008BFC168094A08BF8E
:1039D0004160C96811602360136830BC70470346BA
:1039E000E9E700BF44130020041400204C1300201A
:1039F000B4120020A01200202DE9F0410C461E4D0B
:103A00002968183100F02EFD1C4B1D491D4A0E6817
:103A10001768D3F800802868043000F03BFD631C71
:103A200015D02B68A41929685C600AD23846043185
:103A300000F018FD144B1A68944238BF1C60BDE8B2
:103A4000F0814046BDE8F041043100F00BBD0F4B62
:103A500029685A681C688A602E68013428682968B9
:103A60001C602D68946804300431F46060609160DB
:103A70006B61BDE8F08100BFA0120020AC120020F5
:103A8000F8130020A8120020AC130020D01300204F
:103A900094462DE9F0412B4C0D4623684168D4F83B
:103AA0000080D9612768036826688A68D4F800E036
:103AB000013318371836C8F8202057608E60224A24
:103AC000CEF8280021490360214BBCF1000F1AD029
:103AD000096812681B682068043000F0DBFC1D4B8D
:103AE00019685A6801311960216890688A602168F4
:103AF000C860216804314160216820680431916008
:103B00004361BDE8F0810E681768D3F80080206833
:103B1000043000F0BFFC2368AD1921685D6005D357
:103B20004046BDE8F041043100F09CBC3846043109
:103B300000F098FC084B1A68954238BF1D60BDE83C
:103B4000F08100BFA0120020A8120020F81300206E
:103B5000AC120020D0130020AC130020F0B40026DB
:103B6000C368DB689A6AD3E90701816048605068DE
:103B700003F11804A042274808BF51601168056886
:103B80000139D86A9E621160002D2FD1D3E902411C
:103B90005A69A1604C6054681E1DB44208BF516050
:103BA0001168013911601C4A116881421B4938BFF4
:103BB000106000EB800201EB82077D689200D5F86F
:103BC00008C08C589D60C3F80CC0CCF80460AE608F
:103BD0005F61134B01341B688C50DB6A834215D242
:103BE000F0BC01230F4A1846136070470E4A15684F
:103BF0005168013515608D68D9611D626C608C60FB
:103C00009A62074B1B68DB6A8342E9D3F0BC002051
:103C1000704700BF441300204C130020B412002052
:103C2000A012002004140020B8130020034A044B03
:103C300012681B68C0E90023704700BFB013002062
:103C4000F8130020F8B50D46044600F075FA2B680D
:103C5000124A581C11681BD0D4E90060DFF840C03C
:103C6000DCF80070BE4208D0884206D80023012448
:103C70002B6000F06FFA2046F8BD0F1ABB42F5D951
:103C80005B1ADCF80010126803442B60C4E90012D0
:103C9000002400F05FFA2046F8BD00BFF8130020B2
:103CA000B01300200122014B1A6070470414002059
:103CB0002DE9F04FB74FDFF8E4B2DFF8E482B64DFC
:103CC00087B03B681C68002C40F01D81FFF722FD87
:103CD000FFF72AFEDBF800308146834248D8D8F847
:103CE0000030CBF800001A68B2FA82F25209286854
:103CF000A4EB090100F022FEFFF714FD002800F0FC
:103D000024810023CDE90233CDE904330022286861
:103D100002A900F00FFC0028D3D0029B0498002BCE
:103D2000C0F2E980DDF810A0DAF814301BB10AF116
:103D3000040000F0AFFBFFF7F7FDDBF80030019067
:103D4000984243D3DDE90123013BCBF80020082B47
:103D5000DCD8DFE803F06161C0A5C76161C0A500E0
:103D600022F001028AF824205046DAF820309847E1
:103D70003B681A68002A00F0D880DA68D2F80CA0F4
:103D800014680AF10406304600F084FB9AF82420F7
:103D90005107E5D503E05046DAF820209047DAF8DD
:103DA0001820CAF810A01119A418CAF80410F2D3E8
:103DB0003146D8F8000000F055FBD5E721F00101AD
:103DC00089F824104846D9F8203098473B6819688C
:103DD000002900F0B480D968D1F80C900C6809F182
:103DE0000406304600F056FB99F824104807E5D544
:103DF00003E04846D9F820108847D9F81810C9F8C8
:103E0000109008196418C9F80400F2D33146D8F8A4
:103E1000000000F027FBD5E79AF824000399DAF8B0
:103E20001840019A0B1940F001068AF824602CBF53
:103E3000012600269342CAF80430CAF810A000F206
:103E40008780511A8C423FD8410712D420F00100DC
:103E50008AF824005046DAF82030984756E78C421A
:103E600000F2C680DAF82030504698473346DAF838
:103E70001840019AE6182CBF01200020B242A2EBA4
:103E80000301CAF80460CAF810A0E8D29A4201D22D
:103E90000028E7D038680AF1040100F0E3FAD9E716
:103EA0000399019A9AF82430881843F0010390424C
:103EB0008AF82430CAF81810CAF80400CAF810A00A
:103EC0004BD800293FF422AFD8F800000AF10401D2
:103ED00000F0C8FA1AE79AF8243023F001038AF8B0
:103EE000243013E79AF824309A0777D523F001039A
:103EF0008AF824300AE7039B05999847029B002B18
:103F0000FFF604AF0EE7DB681C68FFF703FCFFF762
:103F10000BFDDBF80030814683423FF629AF844237
:103F2000CBF800001FD90022E1E6D8F80020CBF83A
:103F300000903A60C8F80030FFF7F4FBE1E6D8F8EB
:103F40000010C8F800303960FCE600F0E9F8D8E667
:103F5000914202D9002E3FF477AF38680AF104018C
:103F600000F080FAD2E6FFF7DDFB3B68DB68DE6835
:103F7000331D1846019300F08DFA96F8242053075C
:103F800016D422F0010286F824203046336A98477E
:103F9000B7E600BFA4120020FC130020A8130020E5
:103FA000B012002081421DD83046316A88475446FD
:103FB000B169A9EB040014EB010A2CBF0123002313
:103FC000CA45C6F804A03661ECD94C4501D9002B8E
:103FD000EAD00199386800F045FAD6E7504600F07B
:103FE0005DF893E60199D8F8000000F03BFACCE7C1
:103FF000D8F800000AF1040100F034FA2AE700BF03
:10400000F0B5174C83B000F097F825687DB100F04B
:10401000A1F8206848B103241248002301908022AF
:10402000114912480094FFF735FA03B0F0BD104E65
:10403000104F304600F0F8F9384600F0F5F90E4A16
:104040000E4B176010212A460A201E6000F036FA37
:1040500020600028DBD00A4900F0B0FBD7E700BFA2
:10406000FC1300200014002068590010B13C00101F
:104070005013002064130020B0120020A41200206E
:104080006059001010B50446FFF744FB2046FDF7C9
:10409000FBF90446FFF746FB204610BD50B110B5B2
:1040A0000446FFF737FB2046FDF700FABDE8104055
:1040B000FFF738BB704700BF002300B583B0019302
:1040C00000F044F9019B002BFCD003B05DF804FB29
:1040D00010B500F03BF90446FFF72CFC28B14FF077
:1040E000E0234FF08052C3F8042D2046BDE8104075
:1040F00000F038B910B504224FF0E024002322610B
:104100000520A361FCF7C8FE0721044BA3FB002395
:104110009B09013B6361216110BD00BFD34D62105B
:104120004FF0E0234FF08052C3F8042DBFF34F8FC0
:10413000BFF36F8F704700BF08B500F007F9044A5E
:10414000136801331360BFF34F8FBFF36F8F08BD48
:104150005C090020044B1A68013A1A60186800B123
:10416000704700F0FFB800BF5C090020836913F8B6
:10417000023C662B00D070474FF0E023D3F8882D27
:1041800042F47002C3F8882DD3F8342F42F0404235
:10419000C3F8342F00F0BCB82DE9F04F4FF0113EBA
:1041A0004FF0807440E909E34FF0073340F8044CC6
:1041B000164C40F8343C40E903424FF005334FF0D1
:1041C00006324FF0123B40E90F324FF0033A4FF006
:1041D00002394FF001384FF010374FF009364FF0E9
:1041E00008354FF004346FF0020340E905AB40E9B5
:1041F000078940E90B6740F8305C40F8404C40F8D4
:10420000443C40F8481DBDE8F08F00BFB9400010A5
:104210004FF0E0234FF07F42002110B584B00291AF
:10422000C3F81C2DD3F81C3D1B0E8DF807309DF8EC
:1042300007309DF807301A060CD5029B0133029314
:104240009DF807305B00DBB28DF807309DF8073032
:104250001B06F2D4029B082B3AD0029AC2F1070245
:10426000120202F4E0624FF0E023002419490E200C
:104270000A60D3F8202D184942F47F02C3F8202D9C
:10428000D3F8202D42F07F42C3F8202DC3F81C4DF7
:10429000FEF78CFE11490F20FEF788FE10490B2017
:1042A000FEF784FEFFF726FF4FF050420D490E4BFC
:1042B0000C6012681A7000F041F8FFF74BFB039492
:1042C00000F044F8039B002BFCD0002004B010BD8C
:1042D0000022C8E73813002075430010D1400010B9
:1042E000F54300105C0900205809002008B5FCF7D0
:1042F000F3F8044B044A0344136000F087F8034BBF
:10430000186008BD001200209C120020A01300209D
:10431000094A1168086806C881F30B88022181F3F5
:104320001488203080F30988BFF36F8F4FF00000AE
:1043300080F3118810470000A012002062B661B619
:10434000BFF34F8FBFF36F8F66DF00BFEFF31180B6
:104350004FF0100181F31188BFF34F8FBFF36F8FC0
:10436000704700BF80F31188BFF34F8FBFF36F8F8B
:10437000704700BFEFF309811EF0100F08BF21ED59
:10438000108AEFF30B82734621E9FC0F55FC0844B9
:1043900057FC096459FC0A8401E9F003144A1368C4
:1043A00019604FF0100181F31188BFF34F8FBFF3F5
:1043B0006F8FFFF7CFFA4FF0000080F311880C4A9F
:1043C000116808681838B0E8F00345EC004447EC81
:1043D000016449EC0284B0E8FC0F13F0100F08BF31
:1043E000B0EC108A82F30B8880F30988184700002C
:1043F000A01200201EF0040F0CBFEFF30880EFF3B3
:1044000009800149084700006D41001010B51820CF
:10441000FFF738FE044620B1002340F8043B00F0CB
:1044200003F8204610BD00BF4FF0FF31002200F11D
:104430000803C0E90131C0E903330260704700BFDF
:1044400000230361704700BF10B4D0E900329468C4
:104450000133C1E90124616091605DF8044B08619A
:104460000360704730B40D686B1C10D000F1080376
:104470001C465B681A68AA42FAD902684B6001328E
:1044800099608C606160086130BC026070470469AB
:104490006368F2E70346026910B45468406899689B
:1044A0009C428160486008BF5160002110685DF83F
:1044B000044B013819611060704700BF70B5A0B39C
:1044C000A1FB002305460E467BBB01FB00F010F16B
:1044D000490F2AD84830FFF7D5FD044628B33EB32C
:1044E00000F148032360C4E90F56FFF725FE0023BF
:1044F000FF20A363216CE36B226801FB03F3591ACD
:10450000626013440A44C4E9023284F8440084F827
:10451000450004F11000FFF787FF04F12400FFF7C6
:1045200083FFFFF717FE204670BD0024204670BDB4
:104530000346D7E72DE9F043044685B0884601924B
:10454000FFF7FAFDA56B002D40F01781019B002BB2
:1045500000F0C68002A8FFF769FB2F4604F124068D
:10456000FFF7F8FDFFF7D6F8FFF7E6FD94F84430C3
:10457000FF2B08BF84F8447094F84530FF2B08BF28
:1045800084F84570FFF7E6FD01A902A8FFF75AFB82
:10459000002854D1FFF7D0FDA36B002B40F0A6807C
:1045A00004F12409FFF7D6FD48460199FFF724FAE4
:1045B000FFF7C2FD94F845305DB2002D04DC11E038
:1045C0006B1EDAB25DB26AB1636A5BB14846FFF74F
:1045D000C5FA0028F4D0FFF765FB6B1EDAB25DB2B6
:1045E000002AF1D1FF2384F84530FFF7B3FDFFF730
:1045F000A3FD94F844305DB2002D14DD04F11009E0
:1046000003E06B1EDAB25DB26AB123695BB1484662
:10461000FFF7A4FA0028F4D0FFF744FB6B1EDAB2D0
:104620005DB2002AF1D1FF2384F84430FFF792FDF8
:10463000FFF778F800284AD1FFF772FD47E0FFF74F
:104640007BFD94F845305DB2002D04DC11E06B1E5B
:10465000DAB25DB26AB1636A5BB13046FFF77EFAE7
:104660000028F4D0FFF71EFB6B1EDAB25DB2002A01
:10467000F1D1FF2384F84530FFF76CFDFFF75CFDB7
:1046800094F844305DB2002D14DD04F1100903E00C
:104690006B1EDAB25DB26AB123695BB14846FFF7BF
:1046A0005DFA0028F4D0FFF7FDFA6B1EDAB25DB2B6
:1046B000002AF1D1FF2384F84430FFF74BFDFFF7C8
:1046C00031F8FFF739FDA36B53B1FFF743FDFFF757
:1046D00033FDA56B002D50D1019B002B7FF440AF23
:1046E000FFF738FD002005B0BDE8F083FFF732FD8D
:1046F000FFF722FD94F845305DB2002D14DD04F182
:10470000240903E06B1EDAB25DB26AB1636A5BB181
:104710004846FFF723FA0028F4D0FFF7C3FA6B1ED0
:10472000DAB25DB2002AF1D1FF2384F84530FFF7F9
:1047300011FDFFF701FD94F844305DB2002D14DD4A
:1047400004F1100903E06B1EDAB25DB26AB12369AD
:104750005BB14846FFF702FA0028F4D0FFF7A2FA4F
:104760006B1EDAB25DB2002AF1D1FF2384F8443027
:10477000FFF7F0FCFEF7D6FFA9E7226C5AB1E1681B
:10478000A36811449942E16028BF2168404628BFD0
:10479000E16000F029FE2369013DA5632BB9FFF715
:1047A000D9FC012005B0BDE8F08304F11000FFF74B
:1047B000D5F90028F3D0FFF7B3FCF0E700296BD060
:1047C000564B5A68904200F08B801A6810B4002A49
:1047D0003BD0DA68904200F09E809A68002A55D05B
:1047E0005A69904200F095801A69002A55D0DA691A
:1047F000904200F082809A69002A54D05A6A90420E
:1048000056D01A6A002A57D0DA6A904277D09A6A4C
:10481000002A56D05A6B904273D01A6B002A55D09A
:10482000DA6B90426FD09A6B002A54D05A6C904247
:104830006BD01A6C002A59D0DA6C904267D09B6C0E
:10484000002B58D05DF8044B7047DA68904262D074
:104850005A6990425DD01A46DC69A0424DD05C6A2C
:10486000A04225D0DC6AA04249D05C6BA04248D06F
:10487000DC6BA04247D05C6CA04246D0DC6CA0420E
:1048800045D0C2E900105DF8044B70475A69904268
:104890003FD003F10802DFE77047DA6990422CD07D
:1048A00003F11002DBE75A6A904201D01C4AD9E7B3
:1048B000042203EBC202E4E7DA6A90421FD0194AED
:1048C000D3E75A6B90421CD0174AD1E7DA6B90427B
:1048D00019D0164ACFE75A6C904216D0144ACDE749
:1048E000002203EBC202C2E900107047DA6C90426A
:1048F0000DD0104AC5E7104AC3E70322D9E70522C5
:10490000D7E70622D5E70722D3E70822D1E7092215
:10491000CFE70222CDE70122CBE700BF4010002005
:104920005810002060100020681000207010002037
:1049300078100020801000208810002070B50546F7
:104940000E461446FFF7F8FB95F84430FF2B04BFE2
:10495000002385F8443095F84530FF2B04BF002331
:1049600085F84530FFF7F6FBAB6B002B43D0FFF724
:10497000E3FB95F845305CB2002C14DD05F124060C
:1049800003E0631EDAB25CB26AB16B6A5BB13046B7
:10499000FFF7E4F80028F4D0FFF784F9631EDAB2D9
:1049A0005CB2002AF1D1FF2385F84530FFF7D2FB36
:1049B000FFF7C2FB95F844305CB2002C14DD05F122
:1049C000100603E0631EDAB25CB26AB12B695BB118
:1049D0003046FFF7C3F80028F4D0FFF763F9631EF1
:1049E000DAB25CB2002AF1D1FF2385F84430BDE889
:1049F0007040FFF7AFBB2246314605F12400FFF7B8
:104A000047F8B4E700283BD038B5044600681D28B5
:104A100000D938BD0421FBF7B5FCD4ED047ADFEDF5
:104A2000196AF8EE677AB3EE007A77EEA67A67EE47
:104A3000877A0020FCEEE77A2168A5894A081F29B9
:104A40008ABF02F0030202F00702083202EB82037F
:104A50009B0001F00101C4E9012103F1804202F54C
:104A6000282108608860C8600D61C1ED017A086086
:104A70000B6802F52922DB4303F00103136038BD04
:104A8000704700BF0000003D2DE9F04784460C460A
:104A900000252CF00F0864B244EA0808384F394E5C
:104AA0004FFA88F884B048F0080A39780DF10F02FF
:104AB000012330685FFA8AFA009544EA0C148DF8F5
:104AC0000FA0FEF75FFB4FF416700021FCF770F8A3
:104AD00000950DF10F0201233978306848F00C0879
:104AE0008DF80F80FEF74EFB4FF416700021FCF797
:104AF0005FF800950DF10F0201233978306864B238
:104B00008DF80FA0FEF73EFB4FF416700021FCF766
:104B10004FF844F0080900950DF10F020123397890
:104B20005FFA89F930688DF80F90FEF72BFB4FF490
:104B300016700021FCF73CF800950DF10F020123DF
:104B40003978306844F00C048DF80F40FEF71AFBFA
:104B50004FF416700021FCF72BF8397830680123E8
:104B60000DF10F0200958DF80F90FEF70BFB4FF43F
:104B70001670002104B0BDE8F047FCF719B800BF7B
:104B8000081400206012002000210120FFF77CBFE4
:104B900010B5844684B08E46084B04AC0FCB04E9B4
:104BA0000F00002104EB8C0C5CF8100C803070447A
:104BB000C0B204B0BDE81040FFF766BF285A00102D
:104BC00010B50446007830B10121FFF75DFF14F8FD
:104BD000010F0028F8D110BD38B50A460546134B21
:104BE000134C002103201A702560FFF74DFF0021B0
:104BF0000320FFF749FF00210320FFF745FF0021B5
:104C00000220FFF741FF00210620FFF73DFF0021B2
:104C10002820FFF739FF00210C20FFF735FFBDE802
:104C2000384000210120FFF72FBF00BF08140020EB
:104C300060120020034670B50846C3E900120C4616
:104C40001546FBF7E1FB4FF0010343EC44404FF006
:104C5000000646EC40402846FBF7D6FB46EC4450A5
:104C600070BD00BF0000000070B503680126054656
:104C700046EC40300A200021FBF79AFF4FF000027B
:104C80002B6842EC40302C4C6B68A16A4FF0504CC2
:104C900001F5EA4106FA03F3303102E0A26A9142DB
:104CA00003D9DCF804201A42F8D04FF0504462686F
:104CB000134238D02048856A816A01F5EA413031D3
:104CC00002E0826A914202D962681342F9D14FF040
:104CD00050425268134226D1174B986A401BFCF78A
:104CE0003FFB13A3D3E90023FCF7A6FA0022134BE2
:104CF000FCF7A2FAFCF714FBF0EE007A07EE100ABC
:104D0000B4EEE77AF1EE10FA0DDB06EE900A9FEDB5
:104D10000C7AF4EEC76AFFEE007AF1EE10FA88BF63
:104D200017EE900A70BD074870BD00BFAFF300805A
:104D3000006F8104C58FA13F00000B400000E03FE1
:104D40000000C843000080BF024B0146186800F015
:104D50000BB800BF700D0020024B0146186800F030
:104D600043BC00BF700D002001F10B03162B2DE991
:104D7000F04F074683B023D8102900F2AF8000F02F
:104D8000AFFA102518230220BA4E33445C68A3F111
:104D90000802944200F056816368384623F003030A
:104DA000D4E902122344CA6091605A68083442F080
:104DB00001025A6000F09AFA204603B0BDE8F08F75
:104DC000002B23F00705C0F28980A94200F28680FB
:104DD00000F086FAB5F5FC7FC0F07B826B0A00F02C
:104DE0008480042B00F26281AB0903F1390003F1E6
:104DF000380EC3009F4E3344A3F1080C5C68A445F1
:104E000007D10DE0002AE16880F216818C450C463E
:104E100006D0636823F003035A1B0F2AF2DD7046A5
:104E2000DFF868823469444500F0F280636823F05B
:104E3000030CACEB05030F2B00F37481002BC6E9C8
:104E4000048880F26381BCF5007FD6F804E080F02E
:104E5000FF804FEADC0301224FEA5C1C013302FAB7
:104E60000CF256F833104EEA020E06EBC302083A73
:104E7000C6F804E0C4E9021246F83340CC6083105F
:104E80004FF0010C0CFA03FCF44534D81CEA0E0F69
:104E900007D120F003004FEA4C0C04301CEA0E0F3F
:104EA000F9D006EBC00A8146D646DEF80C300BE09E
:104EB0005A681C46DB6822F00302511B0F2900F3DD
:104EC0000181002980F215819E45F1D109F1010986
:104ED0000EF1080E19F0030FE7D158E10C233B60E7
:104EE0000024204603B0BDE8F08F4FF4007340204B
:104EF0004FF03F0E7EE7B468636823F00309A945CD
:104F0000A9EB050302D30F2B00F385805A4B082031
:104F10001B6803F1100804EB0903009300F056FA34
:104F2000564AA84483461368013305D008F1FF3878
:104F30004342804403EA08084146384600F02AFA12
:104F4000B0F1FF3F82464D4A00F0078104EB0903B0
:104F5000834200F200814A4B0BF1FF3C1868404449
:104F6000186000F064811168013100F06C8104EB7D
:104F70000902AAEB020202441A601AF00702CDE904
:104F8000002300F02781C2F10802384692445A44B7
:104F9000D04408EA0C01521A02EA0C0B594600F000
:104FA000F9F9421C019B00F06A81A0EB0A0000EBBA
:104FB0000B08186848F00102B442C6F808A058442B
:104FC000CAF80420186017D0B9F10F0F40F23E81E3
:104FD0006168A9F10C024FF0050C22F0070201F004
:104FE000010111430F2A616004EB0201C1E901CC08
:104FF00000F24D81DAF80420224B544619688142B0
:1050000038BF1860204B1968814238BF1860A6E08D
:10501000D6F804E033E7621945F0010543F00103D7
:10502000083444F8045C3846B260536000F05EF91E
:10503000204603B0BDE8F08FA26823443846D16013
:105040008A60B2E6DC68A3427FF4A6AE0230E7E6EF
:10505000BCF5206F4FEA5C2276D3142A00F2CD8093
:1050600002F15C035B32DB00F118F3580839994216
:1050700011D1A5E068090020C410002060090020BB
:1050800094100020BC100020C010002070090020E7
:105090009B68994204D05A6822F003026245F7D80F
:1050A000D968C4E902318C60DC60E8E6142B63D96E
:1050B000542B00F2AB802B0B03F16F0003F16E0E4B
:1050C000C30097E6D4F808C03846671945F00105D3
:1050D0006560CCF80C30C3F808C041F00103C6E9A4
:1050E0000477C7E902887B60A150083400F0FEF81D
:1050F000F7E622443846516841F00101516054F806
:10510000082FD3609A6000F0F1F8EAE6A44438462C
:105110000834DCF8043043F00103CCF8043000F02C
:10512000E5F8DEE6621943F0010145F00105384675
:105130006560C6E90422C2E90288516044F80C3077
:10514000083400F0D3F8CCE64FEA9C1202F13903A0
:105150003832DB0088E7B44262D0B468626822F07B
:105160000308A845A8EB050302D30F2B3FF753AF65
:10517000384600F0BBF8B3E603F15C0003F15B0EC8
:10518000C30037E65AF80839534540F0A08010F0C4
:10519000030F00F1FF30F5D1736823EA0C0373604D
:1051A0004FEA4C0C0CF1FF329A4204D3A3E64FEACB
:1051B0004C0C09F104091CEA030FF8D0484670E6CC
:1051C00092104FF0010C0CFA02F24EEA020EC6F8F1
:1051D00004E066E70AEB0802384602EA0C02ABEB91
:1051E000020B0BEA0C0B594600F0D4F8431C019B50
:1051F0007FF4DBAEDDF800B0DBE6542A2AD84FEAB4
:105200001C3202F16F036E32DB002DE7B3F5AA7F8B
:105210002AD8EB0B03F1780003F1770EC300E9E520
:105220002E4B0BF1FF3C1868404418609BE61AEACD
:105230000C0F7FF498AEC844D6F808A048F00102DD
:10524000CAF80420D8E6C2F800A096E60123CAF8FE
:1052500004308DE7B2F5AA7F24D84FEADC3202F1A0
:1052600078037732DB00FFE640F25452934224D8B1
:10527000AB0C03F17D0003F17C0EC300BAE5009A8C
:105280004FF0000B083A9044A8EB0A0891E6384624
:1052900004F10801009300F0A7F9009BD6F808A0DC
:1052A0001868A7E640F254539A420CD84FEA9C4241
:1052B00002F17D037C32DB00D6E64FF47E737F2063
:1052C0004FF07E0E96E54FF47E737E22CCE6736837
:1052D00066E7E80805F1080356E500BF94100020D2
:1052E000014800F06FB800BF90100020014800F0A6
:1052F0006BB800BF90100020830730B546D08418EB
:10530000844604E003F8011B9D0704D09C46A44595
:105310006346F7D130BD013A0244A2EB0C02032AE6
:1053200029D9CCB20F2A04EB042404EB04442FD96E
:10533000A2F1100C03F110052CF00F0CAC44C3E9E2
:105340000044C3E9024410336345F8D112F00C0F56
:1053500002F00F0E18D02EF0030CAEF104051A4621
:105360009C4442F8044B6245FBD125F0030404330E
:105370000EF003022344002ACCD0C9B21A4403F829
:10538000011B9342FBD130BD7246F4E70346C6E7EA
:105390009646E0E738B50022064D044608462A60E6
:1053A000FDF704FC431C00D038BD2B68002BFBD05C
:1053B000236038BD50120020014B1868704700BFB1
:1053C000700D0020704700BF704700BF082802D151
:1053D0004FF48050704708B5FFF7EEFF16220346E2
:1053E0004FF0FF301A6008BD844641EA000313F015
:1053F000030349D1403A23D30B6803604B684360F1
:105400008B688360CB68C3600B6903614B69436140
:105410008B698361CB69C3610B6A03624B6A436228
:105420008B6A8362CB6AC3620B6B03634B6B436310
:105430008B6B8363CB6BC36340304031403ADBD22C
:1054400030320BD30B6803604B6843608B6883601A
:10545000CB68C36010301031103AF3D20C3205D350
:1054600051F8043B40F8043B043AF9D2043208D026
:10547000D2071CBF11F8013B00F8013B01D30B8898
:1054800003806046704700BF082A13D38B07B1D052
:1054900010F00303AED0C3F10403D21ADB071CBF24
:1054A00011F8013B00F8013BA4D331F8023B20F88E
:1054B000023B9FE7043AD9D3013A11F8013B00F8C7
:1054C000013BF9D20B7803704B7843708B78837073
:1054D0006046704720F0030110F00300C0F10000A7
:1054E00051F8043B00F1040C4FEACC0C6FF00002C1
:1054F0001CBF22FA0CF213434FF0010C4CEA0C2CA7
:105500004CEA0C4CA3EB0C0222EA030212EACC1286
:1055100004BF51F8043B0430F4D0C2F1000102EAA8
:105520000102B2FA82F2C2F11F0200EBD200704710
:105530002DE9F8430646DFF8AC8008208946FFF7DE
:1055400045FF05463046FFF7CBFED8F808305F68C8
:1055500027F00307A7F11104A4EB09042C44B4FBC2
:10556000F5F4013C05FB04F4A54208DC00213046BB
:10557000FFF710FFD8F808303B44984205D030467A
:10558000FFF7B4FE0020BDE8F88361423046FFF724
:1055900001FF01300FD03F1B104AD8F808303046C9
:1055A00047F001075F6013681B1B1360FFF79EFE47
:1055B0000120BDE8F88300213046FFF7EBFED8F864
:1055C0000820831A0F2BDADD43F0010303495360EF
:1055D000034B1B68C01A0860D1E700BF941000207D
:1055E000600900206809002000295AD0F8B50C464F
:1055F0000746FFF775FE734D54F804CCA4F108027A
:10560000A8682CF001030CF0010ED1184E688842F6
:1056100026F003067CD088194E60406800F0010037
:10562000BEF1000F2ED154F8084C05F1080C121BE6
:1056300023449468644560D0D2F80CE0C4F80CE0D0
:10564000CEF8084000287DD043F0010050600B6088
:10565000B3F5007F2ED25809D9080123834068682A
:105660000131034355F831006B6005EBC103083B82
:10567000C2E9020345F83120C2603846BDE8F8406F
:10568000FFF734BE70B9334405F1080C886843F065
:10569000010460456ED0C968C16088605460D35011
:1056A000D6E770474CF00101B3F5007F44F8041CC5
:1056B000D350D0D3B3F5206F4FEA532144D2990988
:1056C00001F1390001F13804C1006818695808383F
:1056D000884203D155E08968884204D04C6824F0A0
:1056E00003049C42F7D8C868C2E9021082603846B9
:1056F000CA60BDE8F840FFF7F9BD80BB1E44D1E9A0
:105700000213CB60996046F0010353609651B4E7F1
:105710001E44BEF1000F07D154F8083CD21A1E44B3
:10572000D2E90213CB60996046F001035360264B27
:10573000AA601B68B342A0D8244B38461968FFF70B
:10574000F7FE9AE73344A1E714290DD954291FD84D
:10575000190B01F16F0001F16E04C100B5E743F0D0
:10576000010050600B6088E701F15C0001F15B040F
:10577000C100AAE7C5E90422C2E902CC5460D350B3
:105780007BE7A4100123A3406C6823436B60ABE765
:10579000B1F5AA7F06D8D90B01F1780001F17704A1
:1057A000C10092E740F25450814206D8990C01F1B1
:1057B0007D0001F17C04C10087E74FF47E717E24F7
:1057C00083E700BF6809002064090020C41000209E
:1057D000F8B500BF000000005FF800F0E904002009
:1057E0005FF800F0990500205FF800F0E501002067
:1057F0005FF800F07D0100207D100010F10F001017
:1058000025100010C91000105D100010750F001059
:10581000A5100010610F0010F1050010A910001074
:1058200069090010C10F0010911000104110001004
:10583000F10400101905001019020010ED420010CB
:1058400044697374616E6369612066756572612075
:1058500064652072616E676F0000000044697374B4
:10586000616E6369613D20252E326620636D0A00FA
:105870005354415254494E472E2E2E2E0000000004
:1058800054617265617220656C696D69616E6461F5
:1058900000000000496E6974000000004D656469F5
:1058A00063696F6E446544697374616E6369610016
:1058B0000A2A2A2A2050414E4943202A2A2A0A002D
:1058C0000A000000486172647761726520616C6152
:1058D000726D20256420616C726561647920636C4F
:1058E00061696D65640000004861726420617373D2
:1058F000657274004F7574206F66206D656D6F72F0
:105900007900000052656C6561736500626F6F74A9
:10591000325F77323571303830000000302E310080
:10592000322E312E310000007069636F32000000AA
:105930006669726D77617265000000004A756C20BF
:105940002035203230323500666E692B00000000B1
:10595000666E69006E616E00666E692D0000000063
:10596000546D725100000000546D72205376630034
:1059700006005250D3F075420459001006005250F0
:10598000E182887F0C590010060052503ABCA911E0
:105990001C59001006005250ABB360532059001040
:1059A00006005250BBFF3CB628590010060052506A
:1059B000861C030230590010060052505422A29D4A
:1059C0003C59001005005250DE65F4682468001050
:1059D000000000000000F03F000000000000244034
:1059E00000000000000059400000000000408F400F
:1059F000000000000088C34000000000006AF8407A
:105A00000000000080842E4100000000D01263419D
:105A10000000000084D797410000000065CDCD4113
:105A20000D0A00000500000000000000400000001A
:085A3000140000005400000006
:085A3800B0F9FF7F010000003E
:105A4000705900107C5900108859001094590010AA
:105A5000A0590010AC590010B8590010C4590010DA
:105A60004FF050412DE9F0410027044616461D46EF
:105A7000D1F8008008E0C1E88F7F8CF310883046B1
:105A8000294600F0F1FBE8B92168EFF3108C72B6FB
:105A9000D1E8CF2F0123002AFAD1C1E8423F002AE2
:105AA000F6D1BFF35F8F94F904302168002BE2DA5E
:105AB000002384F80480C1E88F3F8CF31088012014
:105AC000BDE8F0810020BDE8F08100BF30B504687A
